:100000000C94CD0F0C94F50F0C94F50F0C94F50F88
:100010000C94F50F0C94F50F0C94F50F0C94F50F50
:100020000C94F50F0C94F50F0C94F50F0C94F50F40
:100030000C94F50F0C94F70F0C94F50F0C94F50F2E
:100040000C94F50F0C94F50F0C94F50F0C94F50F20
:100050000C94F50F0C94F50F0C94F50F0C94F50F10
:100060000C94F50F0C94F50F0C94F50F0C94F50F00
:100070000C94F50F0C94F50F0C94F50F0C94F50FF0
:100080000C94F50F0C94F50F0C94F50F0C94F50FE0
:100090000C94F50F0C94F50F0C94F50F0C94F50FD0
:1000A0000C94F50F0C94F50F0C94F50F0C94F50FC0
:1000B0000C94F50F0C94F50F0C9420100C94F41381
:1000C0000C94F50F0C94F50F0C94F50F0C94F50FA0
:1000D0000C94F50F0C94F50F0C94F50F0C94F50F90
:1000E0000C94F50F0C94F50F0C94F50F0C94F50F80
:1000F0000C94F50F0C94F50F0C94F50F0C94F50F70
:100100000C94F50F0C94F50F0C94F50F0C94F50F5F
:100110000C94F50F0C94F50F0C94F50F0C94F50F4F
:100120000C94F50F0C94F50F0C94F50F0C94F50F3F
:100130000C94F50F0C94E0130C94F50F0C94F50F40
:100140000C94F50F0C94F50F0C94F50F0C94F50F1F
:100150000C94F50F0C94F50F0C94F50F0C94F50F0F
:100160000C94F50F0C94F50F0C94F50F0C94F50FFF
:100170000C94F50F0C94F50F6314C4140D1556155B
:10018000781587159615A5156B1100006B110000E9
:1001900018120000CD110000CD1100001711000051
:1001A0000403030202010301010201030203020529
:1001B0000405070509080A0A0C0D0D101110141486
:1001C000151618191B1A1E1D1F212023242425274C
:1001D00028282A2B2B2C2D2F2F3031313433343635
:1001E0003638373A3A3B3C3D3F3E40424244434733
:1001F00046474A494C4B4E4F4F5052535455565612
:1002000059595B5A5C5E5E5F5F62626363666567F5
:1002100067696A6A6B6D6D6E7070727273757577EF
:1002200077797A7A7D7C7F7E8182828385868787D3
:100230008A8A8A8D8D8E8F909193929595959897B5
:10024000999A9B9B9D9D9FA09FA2A3A2A5A6A6A7AE
:10025000A8AAABABADAEAFAFB2B2B3B4B6B7B8B895
:10026000BABCBBBEBEBFC1C1C3C3C4C6C6C7C8CA71
:10027000CACACDCCCECFCFD0D2D2D3D4D5D6D7D771
:10028000DAD9DCDBDEDEDFE0E3E2E4E5E7E8E9EA59
:10029000EBEDEEEFF1F0F4F4F4F6F7F8F9F9FAFC1F
:1002A000FBFDFCFEFDFEFDFFFEFDFFFDFDFCFDFC7C
:1002B000FBFAFAF8F9F6F6F5F4F2F2F0F0EDEDEB00
:1002C000EBE9E7E7E5E4E4E0E2DEDFDDDCDBDAD81A
:1002D000D9D6D7D4D5D2D3D1D0D0CECECDCCCACB0F
:1002E000C9C8C7C7C5C5C2C4C0C1C0BDBEBCBBBAF2
:1002F000B9B8B6B6B4B4B1B2B0AFADADACAAAAA8F5
:10030000A8A6A5A5A3A2A2A09F9F9E9C9C9A9A99ED
:100310009897969495939291918E8F8C8D8B8A89D4
:10032000878885858383827F807E7D7C7A7B7878D1
:10033000767576727371716E706C6D6C6A696967CF
:10034000686564656361625F605E5D5C5B5A5A57B5
:10035000585556535352514F4E4E4C4B4A484946AE
:100360004545444142403F3F3C3C3C393A383737B1
:100370003534343331322F302E2D2C2C2B29282993
:10038000262525232321201F1E1D1B1A191817158A
:1003900013141110100E0C0C0B09090806060505A4
:1003A000030908050503030201020103030506070B
:1003B000090B0C0E0E111112141215151517161823
:1003C000181A1B1C1C1F202022242325272628281E
:1003D000292A2B2B2D2D2F2F313233353536383816
:1003E000393A3C3B3D3D3F3F40424144454546490B
:1003F000484A4B4B4E4D4E50505153525356555800
:10040000575A5A5B5C5E5E605F62626363666467F4
:100410006868696B6C6C6E6F6F72727274757577E9
:1004200077787A797B7D7C7E8080818383858586E1
:100430008888898A8B8B8D8E8E90909293939695D7
:100440009898989B9A9D9B9F9DA0A0A1A2A3A4A6CB
:10045000A6A7A9AAAAACACAEAEB0B0B0B3B2B4B4C1
:10046000B7B5B9B8BABBBCBEBEBFC0C2C1C3C4C4B5
:10047000C6C6C7C8C9CACBCDCDCFCFD2D2D2D5D4AC
:10048000D6D6D7D9D8D9DBDBDDDDDFE0E1E2E4E5A4
:10049000E5E8E7E9E9EAEBEBECEDEDEEEFF1F1F49D
:1004A000F5F6F9F8FCFCFCFFFDFEFEFDFCFBFAF89E
:1004B000F5F6F3F2F1EEEFEDEDECEBEAEBE8EAE75F
:1004C000E7E6E5E4E1E2E0DFDDDCDCDADAD8D9D644
:1004D000D7D5D6D3D3D2D1D0CECECDCACBC9C8C72B
:1004E000C6C5C5C4C2C2C2BFC0BEBEBBBCB9BAB716
:1004F000B6B7B4B3B3B2B1B1AEAFADADACAAA9AA01
:10050000A7A6A5A5A2A3A1A09F9E9E9D9B9B9A99ED
:1005100098989595949293908F8F8E8C8C8B8A89D6
:100520008887878584848381807F7E7E7B7B7B78C0
:10053000797776767573737271706F6D6E6A6C68A9
:100540006A666766646463626160605D5F5B5C5A93
:100550005A5757565554535152504F4E4F4C4C4A80
:100560004B4848474643444340413F3E3E3C3D3A6A
:100570003A3A38383635343431322F2E2E2D2B2B53
:10058000292A2827282525252222221E1F1E1B1A3C
:100590001B1719161715141514121311100F0E0C22
:1005A0000A0A0D08030300040707080703010203F2
:1005B000090D101313141413151715151312121413
:1005C000161C202123242323252426232322212310
:1005D000272A2E313333333334333433333131320A
:1005E000363A3D4042434342424443424240414204
:1005F00046474E4F5152535153525153514F5152FE
:1006000054575D5E6161626261616261605F6160F9
:1006100064676B6E707270717171707070706E71F2
:1006200073767A7D80818081807F807F807F7E80ED
:100630008286888E8E9190908E908F8E8F8E8F8FE7
:100640009195989C9EA19F9F9E9F9E9E9E9D9F9EE2
:10065000A1A3A8ACADAFB0AEAEADAEADADAEADAEDC
:10066000B0B3B7BABDC0BEBEBDBCBDBDBCBDBEBCD7
:10067000C0C2C6C9CECDCFCECBCDCACDCCCDCCCDD0
:10068000CED1D6D9DBDFDEDCDCDBDADBDDDBDDDBCC
:10069000DFE0E3E9ECEDEEEDEAE9EAEBEBEBEDECC4
:1006A000EDEEF3F7FCFEFEFCF9F8F7F9FCFFFDFCBC
:1006B000F7F3EFECEDEBEDEAECE8EBE9EEECEFEB6A
:1006C000E9E3E1DDDDDCDCDCDBDBDADCDCDFDDDD4E
:1006D000D8D6D1CFCCCDCCCCCDCBCBCDCDCFCECC35
:1006E000CBC5C3BEBEBDBDBDBCBDBCBDBFBEBEBE19
:1006F000BBB6B3B1ADADAEADAEADAEADAEB0AFAEFF
:10070000ABA7A5A09F9D9F9D9F9D9F9E9FA0A09EE4
:100710009C999491908E8E8F8F8E908E918F918FC9
:100720008C8A8582807F7E807F8080807F828080AF
:100730007D7B7573716F6F70707170717171717095
:100740006F6A6764615F606161616161626261617A
:10075000605A595352515050535153525153525160
:10076000504D484542414042434244424342434245
:10077000413C3A363232313233343335323334312C
:10078000322F292723222123242524252324232310
:10079000221F1C17131212131516161514131413F7
:1007A00013110C06020304030205030205020304ED
:1007B000040106101512131312141213121412143A
:1007C0001212152024222124222223222223222332
:1007D0002222242F3432313233303431323232312A
:1007E000342F353F4341424142414240434142411F
:1007F00042404350525150534F5251515152505117
:10080000524F545E626061616060626060625F620C
:10081000615E646D72707070716F71707070707104
:10082000706F737C837E80807F80817E817F8080FB
:10083000807E828D918F8F908E90908E908F908EF3
:10084000918D929DA09E9F9F9F9EA09E9FA09E9EE9
:10085000A19CA2ACAFAFAEAFAEAEAFAEAEB0ADAEE0
:10086000B0ADB0BCC0BDBEBEBEBEBEBEBDC0BCBFD6
:10087000BEBDC0CBD0CCCECDCECECDCDCECFCBCFCE
:10088000CECCCFDCDEDDDCDEDDDDDEDCDDDEDCDEC5
:10089000DDDCDFEBEEECECEDEDEDECEDEDECEDECBD
:1008A000EEEBEFF9FFFBFCFDFCFCFCFDFBFDFDFBB3
:1008B000FCFEFAEEECEDEDECEDEDECEEEBEDEEEB3F
:1008C000EDEEEAE0DBDEDEDBDFDCDDDEDDDCDEDD27
:1008D000DDDEDBCFCDCECECCCFCDCDCECECDCECD11
:1008E000CDD0CAC1BCBFBEBDBFBEBDBFBEBDBFBEF9
:1008F000BDBFBCB1ADAFAEAFAEAEAFAEAFAEAFAEE3
:10090000ADB1ACA19E9EA09EA09E9F9F9F9EA09ECB
:100910009FA09D918E908F8F908F8F908F8F8F90B3
:100920008F908D837E7F817F817F7F808080807F9D
:100930007F827D736E71716F7071707070716F7185
:1009400070716E635F61616061616061606161606F
:1009500061615F5350515250525052505251515157
:1009600050534F443F434141424241414241434041
:100970004242403430333231333231323331323229
:100980003233302421232321242123232123232212
:1009900021251F16111412131312141213131312FC
:1009A00013141105010708060704070608060505C4
:1009B000080707011B14151516151615161516141C
:1009C0001617151229242324262525232525252419
:1009D0002427242138333333353532343434343317
:1009E0003435343047434143444441444245424214
:1009F0004345433F56525152535351515452525210
:100A00005154534E6660606262626061626360600E
:100A10006263625D756F70717170716F7271707009
:100A20007171726B857F7F7F817F807F81807F7F07
:100A30008081807C938E8E8F8F908E8F8F8F8F8F03
:100A40008E918E8CA29E9C9F9E9F9E9CA09E9E9E01
:100A50009E9F9E9BB1ADACADAEAEADACAEAEADADFE
:100A6000ADAEAFA8C2BBBBBCBFBCBBBDBDBDBCBBFC
:100A7000BDBEBEB7D0CCC9CDCCCCCACCCDCBCCCBF7
:100A8000CBCECCC7DFDBD9DBDCDADBDBDBDBDBDAF5
:100A9000DADEDAD7EEEAE9E9ECE9EAEAEBEAE9EAF2
:100AA000EAECEAE5FEFAF7F9F9FBF9F9F8F9FBFAED
:100AB000F8F7FAFEE6E9ECEAEAEAE9EBEAEAEAEB59
:100AC000E9EAE9EED7DBDCDCDAD9DDDADCD9DCDB3C
:100AD000DBDADADFC7CDCDCBCBCCCCCCCBCCCBCD1E
:100AE000CBCBCBD0B8BDBFBBBCBCBEBDBBBCBDBE01
:100AF000BCBBBCC1A9ADB0ACADADAFADACADAEAFE4
:100B0000ACACADB29A9E9F9F9D9E9F9E9E9D9F9FC7
:100B10009E9C9EA38A90908F8E8F8F908E8E908FAA
:100B2000908C90927C80827F7F7F81807F8080808C
:100B30007F807E856B72727070707270717070726F
:100B400070706F765C626362606162626161616352
:100B5000616060674D535353515253535152525336
:100B6000525251563F434642424245434341444517
:100B7000424143482E3634353233363334333435FC
:100B800034323338212526242523272423262426DE
:100B90002423242A111518141615161515161517C1
:100BA0001415151A010202020201020200030101DA
:100BB00002020201030F0F0F10101010101210127A
:100BC00011121212131F201F211F21212021222068
:100BD0002222222122302F2F2F3030312F3131315C
:100BE00031313231333E403F403F4041404041414E
:100BF00042404340434F4E504F4F50505050515041
:100C000051515152515F5F5E605F60605F61606132
:100C100061606262616E6F6F6F6F706F7070707124
:100C200070707271717E7F7E7F7F7F807F817F8019
:100C300081818180828F8D8F8F8F8F8F90908F9009
:100C400091909191919D9F9E9E9F9F9F9FA09FA1FC
:100C50009FA1A0A1A1AEAEAEAEB0AEAFAFB0B0AFEF
:100C6000B0B1B0B0B1BEBEBDBFBEBFBEBFBFC0BFE2
:100C7000C0C0C0C0C1CDCECECECFCECFCED0D0CED4
:100C8000D1D0CFD2CFDEDEDDDEDEDFDDE0DEDFDFC6
:100C9000DFE0E0DFE1EDEDEDEEEEEEEFEFEEF0EFB9
:100CA000EFF1F0F0F0FEFEFDFDFFFEFDFFFDFFFDAC
:100CB000FFFDFEFDFDF2EFF1EFF0F0EEF0EEEFEEF6
:100CC000EEEEEDEEECE1DFE1DEE0E0DEDEE0DEDEEA
:100CD000DEDDDFDDDED0D0D1CFD0D0D0CECFD0CDD5
:100CE000CFCFCDCDCFBFC2BFC0C0C0BFBFBEC0BEC3
:100CF000BFBDBFBDBEB1B0B1AFB1B0AFB0AFAFAFB0
:100D0000AEAFAFADAEA1A1A19FA1A09FA09FA09E9D
:100D10009F9E9E9F9D9290919091908F918E918E8B
:100D20008F8F8F8E8E81828081818080807F807F77
:100D30007F7F7E7F7E7270727071707070706F7066
:100D40006F706E6E7060636062606160615F615F52
:100D50005F605E5F5F5250535051505150514F5041
:100D60004F4F504F4E42424241414140423F41402D
:100D70003F413E403E333132313230313130302F1D
:100D8000312F302E30222123212220222121202008
:100D900021201F201F1313111211121110111011F5
:100DA0000F100F100E0201020201020103010203E3
:100DB00002030204030403050406040607050807EA
:100DC0000808090A0A0A0B0C0C0D0E0E0F0F11125F
:100DD000111215131615171819191A1B1D1D1E1F90
:100DE0002022212424262628282A2B2C2E2E2F327E
:100DF0003134343736383A3B3D3C40404143444639
:100E000047484A4C4C4D515052545656585A5B5CC8
:100E10005F5F6163646568686A6D6C6F707274743B
:100E200077787A7A7D7F7F8282848787898B8C8EA0
:100E30008E9291959597989A9B9D9FA0A1A3A4A609
:100E4000A8A8ABACACAFB1B1B2B5B6B7B8BBBABD80
:100E5000BFBEC1C2C4C4C5C9C7CACBCDCDCED0D117
:100E6000D3D3D4D6D7D8D9DADBDCDEDEDFE1E1E2DA
:100E7000E4E4E5E6E7E8E8EAEBEBECECEFEDF0F0D4
:100E8000F0F1F2F3F3F3F5F5F6F6F6F7F8F8F9F911
:100E9000F9FAFAFBFAFCFCFBFDFCFCFEFCFEFDFE95
:100EA000FDFEFEFEFDFFFEFEFDFFFDFFFCFFFDFD66
:100EB000FDFDFCFDFCFCFCFBFBFAFAFBF9F8FAF784
:100EC000F8F8F5F7F6F4F5F4F3F2F2F2F0EFF0EEED
:100ED000EEEDECEAECE9E8E9E6E7E4E5E3E3E1E09E
:100EE000DFDFDDDDDADBD9D7D8D5D4D4D3D0D0CF8E
:100EF000CDCCCCC9C8C8C5C5C4C1C1BFBFBCBBBAB5
:100F0000B9B6B7B4B2B2B1AEADABACA7A9A5A4A403
:100F1000A19F9F9E9A9B9798959492918E8F8C8A71
:100F20008A8687858281807E7D7B7A7777757471EA
:100F300070706C6C6A696766646261605E5D5A5B62
:100F4000575756535251504E4C4B4B4748454444CB
:100F500040413F3D3D3A3A393636353332312F2F15
:100F60002E2B2B2B272926252523222120201D1E31
:100F70001C1C191A19171716151414131111111016
:100F80000E0F0D0E0B0D0A0B0A09090907080706BB
:100F90000705050505040305030302040202020216
:100FA0000202020003010102010103020203040321
:100FB0000604070708080A0B0C0D0D101111121575
:100FC000151618181B1B1C1E1E2120232225252642
:100FD00028282A292C2C2E2D2F3031323234353529
:100FE0003638383A393C3C3E3E3F40424244454523
:100FF00047484A494C4C4D4F505052545355575600
:10100000595A595C5C5D5F5F6062616464656667E4
:1010100068696A6A6D6C6E6F7071717375747677DA
:1010200079797A7B7D7D7F808083828585868789BB
:10103000898B8B8D8E8E8F9291939395969697999F
:101040009A9A9B9D9CA09EA0A2A2A3A4A6A5A8A894
:10105000AAA9ADABAFAEB0B1B2B3B4B5B7B7BAB879
:10106000BCBBBEBDC0C0C0C4C2C4C6C6C7C8CAC956
:10107000CBCCCDCECED0D0D2D2D3D5D5D5D9D7D951
:10108000DBDBDCDDDFE0E0E3E2E5E5E6E9E9EAEB36
:10109000EDEEF0EFF2F2F5F3F7F6F8F8FAF9FCFB03
:1010A000FCFDFCFEFEFDFEFEFEFEFEFDFDFDFBFC6E
:1010B000FBFBF8F9F8F6F6F5F4F2F2F0EFEEEDEBF3
:1010C000EBE8E9E7E4E6E2E2E1E0DEDDDDDCD9DA07
:1010D000D8D7D6D5D5D3D2D2D0D0CFCDCECBCBCA00
:1010E000C9C8C8C6C5C4C3C3C1C0BFBFBCBCBBBAE6
:1010F000B9B7B6B6B4B3B3B0B0AEAFACABABA9A9E9
:10110000A6A7A5A5A2A3A1A0A09D9E9D9B9A9999E3
:101110009896969495919390908E8E8D8B8B8989CD
:1011200087868683848280807F7E7C7B7B787A76CC
:101130007675747372716F706D6D6C6B696A6866C9
:101140006765646362625F615D5E5C5B5B595857B3
:101150005755535451524F4E4E4D4A4B49484745AF
:101160004642444041403E3D3C3C393A39373636B0
:101170003434323330302F2E2D2D2A2B2A27282697
:101180002624232221201E1E1D1B1A181915161491
:1011900012130F100D0E0C0A0A09080607050504A4
:1011A0000304010302010202020102020404040713
:1011B00006080A0B0B0D0E0F10111113141515163E
:1011C0001818191B1B1D1D1F20212123242427262D
:1011D00027292A2A2C2C2D2F30303233333536361E
:1011E00038393A3A3C3C3F3D40414143434546460D
:1011F00048494A4A4C4D4E4E5050525353555557FC
:1012000058585A5B5B5D5E5F6060626265636766EB
:1012100068686A6B6B6D6E6E7170727275747676DB
:1012200078797A7A7B7E7D7F7F81828384848786CA
:10123000878A898B8C8C8E8F8F91929294959696BB
:1012400099989A9B9C9C9E9FA0A0A2A3A3A5A6A6AA
:10125000A9A8AAABABAEADB0AFB0B3B2B4B5B6B699
:10126000B8B8BABCBBBCBFBFBFC2C1C3C4C5C5C888
:10127000C7C8CBCACCCCCED0CFD1D2D2D5D5D6D779
:10128000D7D9DADBDBDDDEDEE1DFE3E3E3E6E6E769
:10129000E8E9EAEAEDECEEEFEFF0F2F3F3F6F5F859
:1012A000F8F9FBFCFCFDFDFFFDFEFEFDFCFCFBF97F
:1012B000F9F7F6F5F4F3F2F0EFF0ECEEECEBE9EA27
:1012C000E8E7E7E4E5E3E1E1E1DEDDDEDBDBDAD917
:1012D000D7D8D6D4D5D3D2D1CFD0CECCCCCBCAC907
:1012E000C7C7C6C5C4C2C3C1BFC0BDBEBBBCB9B9F8
:1012F000B7B8B5B5B4B2B3B0B0AFAEADACABA9AAE8
:10130000A7A8A5A4A5A2A2A1A09E9E9D9C9B999AD8
:101310009797979395939191908E8F8C8B8C8989C9
:1013200088878586838382817F7F7E7D7B7B7A78B9
:101330007976757673737270716E6E6D6C6A6A69A8
:101340006767656663626360605E5F5C5C5B5A589A
:101350005857555554525250504F4D4E4B4A4B488A
:1013600048474644444242413F3E3F3C3B3B3A397A
:1013700037373635343231322F2E2E2D2B2B29286C
:1013800028272624252221221F1F1E1C1B1B1A175B
:1013900018171514141312110F100D0D0C0B09084A
:1013A0000706050403020202020201030404060701
:1013B00008090A0A0C0D0D0F10111212131615163A
:1013C0001918191B1C1D1D1E20212123242327262B
:1013D0002729292B2B2D2D2F2F303232343435371E
:1013E0003739383C3A3D3D3E3F4141434245454611
:1013F0004848484B4C4B4D4F4F5051525354565503
:1014000058575A595C5C5C5F5F5F626164636567F3
:101410006668696A6B6B6E6D6F70717272747576E7
:101420007679787A7A7C7D7E7E80818183848486D9
:10143000878789898B8B8D8E8E90909292949496CB
:101440009698989A9A9B9D9D9F9FA0A2A2A4A4A5BE
:10145000A7A7A8A9ABABACAEAEAFB0B2B2B3B4B5B0
:10146000B7B6B9B9BBBABCBEBEBEC1C1C2C3C4C6A1
:10147000C5C7C8CAC9CBCCCDCFCED0D1D2D3D3D695
:10148000D6D6D8D9DADBDCDCDFDEE0E0E3E2E4E587
:10149000E6E6E8E8EBEAECECEEEFF0F0F1F3F4F579
:1014A000F5F7F8F7FAFBFCFDFCFFFEFDFCFBF9F994
:1014B000F8F7F5F5F5F2F2F1F0EEEFECEDEAEAEA25
:1014C000E7E7E6E5E4E3E2E1E0DFDEDDDCDCD9D915
:1014D000D9D6D7D5D3D4D3D0D0D0CDCECCCBCBC901
:1014E000C7C8C7C4C5C3C2C2C0BFBEBEBCBBBBB9F0
:1014F000B8B8B6B5B5B3B3B1B0B0AEAEACABABAADD
:10150000A8A7A7A5A5A3A3A2A09F9F9E9C9C9A9ACB
:10151000999797959692949190918E8E8C8C8B8AB8
:1015200088888785868383828080807D7C7D7A7BA6
:101530007878777675737471726F6F6E6E6B6B6A95
:10154000696868656564646161615E5F5D5B5C5A82
:101550005A57575755545352524F504E4E4B4C4A70
:10156000494947464545434242403F3F3D3C3C3A5E
:101570003A383737353533323230302E2E2D2A2C4B
:10158000292828262625232321211F1F1E1C1C1B3A
:10159000191918161614151211120F0F0E0C0C0B28
:1015A0000A080906060503030202020204040607EC
:1015B00007080A0B0B0C0E0E0F111211141416163D
:1015C00017181A191C1C1E1D201F22222324252631
:1015D0002728292A2B2C2C2F2F2F31323334353525
:1015E0003738383A3B3C3C3E3E4041414344434718
:1015F0004647494A494D4B4E4F4E5152525354560D
:10160000555859585B5B5C5D5E605F626164636600
:1016100066666969696C6B6D6E6F707171737475F4
:10162000767678787B7A7B7E7C807F8181838385E8
:1016300085878789898A8C8C8E8E8F9191929494DC
:1016400095969799999A9B9C9D9F9EA1A1A1A4A4D0
:10165000A5A5A8A8A8AAACABADAEAFAFB2B1B3B3C5
:10166000B6B5B6B9B8BABABCBDBDBFC0C0C1C3C4B7
:10167000C4C5C7C8C7CBC9CCCCCECECFD1D1D2D3AD
:10168000D5D5D6D7D8DAD9DCDCDDDEDFE0E1E2E49F
:10169000E3E5E6E7E8E9E9ECEBEDEFEDF1F0F3F295
:1016A000F3F6F5F6F9F8FAFAFCFCFFFDFCFBFBF9A2
:1016B000F8F7F7F5F5F2F3F2F0EFEFEDECECEBE91C
:1016C000E8E8E6E6E5E3E3E1E1DFDFDEDCDCDBD909
:1016D000DAD6D8D5D5D4D3D1D1D0CFCECCCDCACBF4
:1016E000C8C8C7C6C5C4C3C2C1C0BFBEBDBCBCB9E3
:1016F000BAB8B7B6B5B5B3B2B1B0B0AEADADABAACE
:10170000A9A9A8A5A6A5A3A2A2A0A09E9E9C9C9ABA
:101710009A9898979595939490928F8F8D8E8B8BA6
:10172000898A8787858684828281807F7E7D7B7C93
:101730007A797778767573747271716E6F6C6D6B80
:101740006A6A676866666463626161605D5E5C5C6C
:101750005A5A585757565453535151504E4E4C4C59
:101760004A4A494846454643434240403F3E3D3B46
:101770003B3B3837383634353232322F2F2F2C2C32
:101780002C292A2728262524232320211F1E1E1B1F
:101790001C1B181917171416121311110F0F0D0C0B
:1017A0000C0B080A070606050303010204050606DA
:1017B000070A080C0A0E0C0F100F1213121515163B
:1017C00018171A191C1C1D1E1E2120232224252631
:1017D000262829292B2C2C2E2F2E32313233353628
:1017E000353839383B3B3C3D3E3F4140434244461F
:1017F00045474849494C4B4C4F4E50505253535417
:10180000565757585A5A5B5D5D5E5F61616164650A
:1018100064666768696A6B6C6D6D706F7171737403
:101820007575777779797B7B7D7D7E8080828283F9
:101830008485878689898A8B8C8D8E8F90909392F0
:101840009495969698999A9A9B9D9E9EA0A0A2A1E7
:10185000A5A4A5A6A8A7AAABAAADACAFAFB0B1B2DC
:10186000B3B3B6B6B6B8B9BABBBBBDBEBEC0C1C1D4
:10187000C2C4C5C5C7C7C8CAC9CDCBCECECFD1D0CB
:10188000D3D3D4D5D5D8D8D9DADADDDCDEDFDFE2C0
:10189000E1E2E5E4E5E7E8E8EAEAEBEDEEEDF0F1B8
:1018A000F0F3F3F5F4F6F8F8F9FAFBFDFEFAFBFABB
:1018B000F9F7F7F6F4F5F2F1F2EFF0EDEDECEBEA13
:1018C000E9E8E6E7E5E5E2E2E1E1DFDEDDDDDADBFE
:1018D000DAD7D8D7D4D6D2D3D2D0CFCFCECCCBCCE8
:1018E000C9C8C8C7C6C4C4C3C2C0C1BEBEBDBBBCD4
:1018F000BAB8B9B7B5B6B4B3B2B1B0AFAFADACABBF
:10190000ABA9A8A7A7A5A5A3A2A2A19EA09D9C9CA8
:101910009B999997989496939392918F908D8D8C93
:101920008A8B898886878583848281817E7E7E7C7E
:101930007B7B787978757675737271726E6F6E6C69
:101940006C6A6A686867666464626360605F5D5E53
:101950005B5B5B5858575655545352524F504E4D3F
:101960004C4B4B49484845474344424240403E3E29
:101970003C3B3C39383837353534333131302E2F14
:101980002C2C2B2A292826272524232221201F1E00
:101990001E1C1B1A191917161614131311110F0EEA
:1019A0000E0D0B0A0B0709060506030202020503CA
:1019B00006050808080B0A0C0D0D0F101112121461
:1019C000151716171A1A1B1C1C1F1E212022232450
:1019D0002426272828292C2A2E2D2E303032323347
:1019E00035363637393A393D3B3E3F3F4042434238
:1019F00045454747484A494C4C4E4D4F515053532B
:101A00005455555858595A5B5C5D5D60606162631E
:101A100063666666686A696B6C6C6F6E6F72717311
:101A20007474767678787B797D7B7F7E7F81828205
:101A30008386848788888A8A8B8D8D8F8F919093F7
:101A40009493969697989A9A9A9D9D9F9EA0A2A1EC
:101A5000A4A4A4A7A7A8A9AAACABADAEB0AFB1B2DD
:101A6000B3B4B5B6B6B8B9BABBBBBDBDC0BFC0C2D2
:101A7000C3C4C4C5C8C7C8CBCACBCDCECFCFD0D3C3
:101A8000D1D5D4D5D7D7D9D9DADCDCDDDFDEE1E1B9
:101A9000E2E4E3E6E5E8E8EAE9ECECEDEEF0F0F2AA
:101AA000F1F4F5F5F5F9F7F9FAFBFBFDFDFEFDFAAA
:101AB000FCF9F9F8F7F6F6F3F3F3F0F1EEEFEDEBEE
:101AC000ECE9EAE7E7E6E5E4E2E3E0E0E0DDDDDCDF
:101AD000DBDAD9D9D6D7D5D4D3D3D1D0CFCFCDCCCB
:101AE000CCC9CAC9C6C7C5C4C4C2C1C0C0BEBDBCBA
:101AF000BCBABAB7B9B5B6B5B3B2B2B1AFAFADADA6
:101B0000ABABA9AAA6A8A5A4A4A3A1A1A09E9E9C94
:101B10009C9B999998969695949292918F908D8D81
:101B20008C8B8A898788858683838380807F7E7D6E
:101B30007C7B7A797876777574727371706F6E6E5C
:101B40006B6C6A69686767656464626160605E5D4A
:101B50005D5A5B5A5856585455535351504F4F4D38
:101B60004D4B4B49494746464544424141403F3D24
:101B70003C3D3A393A3638353533333230302E2E13
:101B80002D2C2A2A2828282524252321221F201EFF
:101B90001C1D1A1B191816171513141111100F0DEF
:101BA0000E0B0B0A080907060504040301000000D8
:101BB0000000000000000000000000000000000025
:101BC0000000000000000000000000000000000015
:101BD0000000000000000000000000000000000005
:101BE00000000000000000000000000000000000F5
:101BF00000000000000000000000000000000000E5
:101C000000000000000000000000000000000000D4
:101C100000000000000000000000000000000000C4
:101C200000000000000000000000000000000000B4
:101C300000000000000000000000000000000000A4
:101C40000000000000000000000000000000000094
:101C50000000000000000000000000000000000084
:101C60000000000000000000000000000000000074
:101C70000000000000000000000000000000000064
:101C80000000000000000000000000000000000054
:101C90000000000000000000000000000000000044
:101CA0000000000000000000000000000000001D17
:101CB000AB8180E266C8558E4961403D398633D894
:101CC0002EF22AA627D1245E223820541EA51C23DA
:101CD0001BC8198E1870176C167D15A114D6131A0F
:101CE000136B12C9113111A3101E10A10F2B0FBCC1
:101CF0000E540EF10D930D3A0DE50C950C480CFFAA
:101D00000BB90B760B370BF90ABF0A870A510A1D6C
:101D10000AEB09BB098D09610936090D09E508BE01
:101D20000899087508520830080F08F007D107B362
:101D30000796077A075E0744072A071107F806E1A6
:101D400006C906B3069D06870673065E064A063771
:101D50000624061106FF05EE05DD05CC05BB05AB27
:101D6000059B058C057D056E055F05510543053610
:101D70000528051B050F050205F604EA04DE04D25A
:101D800004C704BB04B004A6049B04900486047C2E
:101D900004720469045F0456044C0443043A043199
:101DA00004290420041804100407040004CE465239
:101DB00047D6475B48E1486949F1497A4A044B8F65
:101DC0004B1C4CA94C374DC64D564EE84E7A4F0E23
:101DD00050A2503851CE516652FF5299533454D0CC
:101DE000546E550C56AC564C57EE5792583659DB3C
:101DF00059825A2A5BD35B7D5C295DD65D845E3354
:101E00005FE45F96604961FD61B3626A632364DCED
:101E100064986554661267D16792685469176ADCE2
:101E20006AA26B6A6C336DFD6DC96E976F66703711
:101E3000710972DC72B173887460753A761577F245
:101E400077D078B179927A767B5B7C417D2A7E145B
:101E50007F0080ED80DC81CD82C083B484AA85A21E
:101E6000869C8798889589948A958B988C9D8DE41B
:101E7000EE2CED77EBC6E917E86CE6C3E41EE37CD5
:101E8000E1DCDF40DEA7DC10DB7DD9ECD75FD6D408
:101E9000D44CD3C7D144D0C5CE48CDCECB57CAE25F
:101EA000C870C701C694C42AC3C3C15EC0FBBE9C30
:101EB000BD3EBCE4BA8CB936B8E3B692B543B4F7CC
:101EC000B2AEB166B022AFDFAD9FAC61AB25AAEC7C
:101ED000A8B5A780A64DA51DA4EFA2C2A199A07187
:101EE0009F4B9E289D069CE79ACA99AE9895977E2F
:101EF00096699556944493359228911D90138F0CB2
:101F00008E068D028C008B008A028906880B87134F
:101F1000861C8527843383428252816480777F8C3C
:101F20007EA37DBC7CD67BF27A107A2F79507872B2
:101F3000770000000300000200060000000000001F
:101F4000000000000006003C00E20000000300006A
:101F500002800300000000000000000000000600F6
:101F60003C00E200000004000002800300060000C4
:101F70000000000000000006003C00E20000000538
:101F800000000280030006000C00000000000000BA
:101F900006003C00E2000000001A11241FBECFEF33
:101FA000DFE2DEBFCDBF10E2A0E0B0E2E4E2FFE39B
:101FB00002C005900D92AE33B107D9F713E2AEE33C
:101FC000B0E201C01D92A638B107E1F71FE1CAE9EE
:101FD000DFE104C02297FE010E946A1FC839D107C1
:101FE000C9F70E9446190C94051F0C9400001F921B
:101FF0000F920FB60F9211242F933F934F935F933D
:102000006F937F938F939F93AF93BF93EF93FF93C0
:10201000E0914020F0914120309709F00995FF911F
:10202000EF91BF91AF919F918F917F916F915F9150
:102030004F913F912F910F900FBE0F901F901895C9
:102040001F920F920FB60F9211242F933F934F932D
:102050005F936F937F938F939F93AF93BF93EF9310
:10206000FF93E0913E20F0913F20309709F00995D1
:10207000FF91EF91BF91AF919F918F917F916F9160
:102080005F914F913F912F910F900FBE0F901F9036
:102090001895FC01662F660FE71FF11DE70FF11D74
:1020A00085911590619DF0016095689FE00DF11D8F
:1020B00011248F2F08951F93CF93DF93DC01129685
:1020C0004D915C9113979A013A5361E08D919C91E7
:1020D000119702970CF060E080E090E0162F180F47
:1020E000019637FF02C03A5FF9CFC90196958795EF
:1020F000969587959695879596958795222F229503
:10210000207F880F991FFC01E355F24EC591D491B1
:102110008155924EFC01659174916C1B7D0B992742
:10212000629F812D729F800D911D11248C0F9D1F28
:1021300020E0115020F0969587952795FACF352FFE
:10214000440F331F3C3008F43CE015963C93159740
:1021500019968D939C931A971B962C93DF91CF9190
:102160001F91089520915620E22FF0E0EE0FFF1FFF
:10217000E85AFF4D8083918381E0820F8F778093AF
:1021800056200895CF93C1E1C15029F080E098E036
:102190000E94B210F9CFCF910895A4E0B0E0E3ED32
:1021A000F0E10C94451F8C01FC018481882319F017
:1021B000C8010E945B108091572090915620815059
:1021C000891B8F77803178F1F8018481811104C0F7
:1021D000C8010E94C210EFCFF8016081718177279A
:1021E000660F771F660F771F68577E4F44E050E0F9
:1021F000CE0101960E94081F2B813C81E981FA8162
:10220000C9019595879520FF0AC0D801A80FB91F6D
:102210000D90BC91A02DAE0FBF1FED91FC91800FD2
:10222000911F0995C8CF2496E4E00C945E1FA0E0AE
:10223000B0E0EDE1F1E10C943E1FEC01EA89F0E041
:10224000EE0FFF1FE355F44EE590F490C984DA8455
:102250009B840E811F81B884B1E1AB2EAA9409F44E
:1022600032C0C801492D9601B40E821F931F8C0104
:10227000288939892E0D3F1D288B398B2E153F0556
:1022800018F0E114F104A9F426EA3DE0F901282F41
:10229000280FE91FF11DE90FF11D85911590219D72
:1022A000F0012095289FE00DF11D1124CF018C87AE
:1022B0009D878C859D8574E0969587957A95E1F745
:1022C0000E94B210CBCF0E831F83B886CDB7DEB786
:1022D000EBE00C94571FA0E0B0E0E1E7F1E10C94D3
:1022E000381FEC012D812C50222F2295322F307F68
:1022F000732E632E60942F7088819981019711F459
:10230000E8E001C0E0E0F0E0DF01A20FB11DAA0F9C
:10231000BB1FA85FBF4DAD90BC9081E0820F88309D
:1023200008F087E0E80FF11DEE0FFF1FE85FFF4D9B
:10233000C080D180E984FA843B840E811F81588457
:1023400041E1442E4A9409F1432D9701540E021F96
:10235000131FB801C5010E944910282F362D239F55
:1023600040011124B801C6010E944910482F272DB1
:10237000429FC0011124880D991D24E096958795F0
:102380002A95E1F70E94B210DDCF0E831F83588695
:10239000CDB7DEB7E1E10C94511FA0E0B0E0E3ED72
:1023A000F1E10C943C1FEC010E851F85CC84DD848B
:1023B000A984BA847B84EE80FF809884A1E18A2E70
:1023C0008A9451F1472D9501940EE21EF31EEA14F2
:1023D000FB04F0F4C8019695879528813981243053
:1023E000310511F0282F07C09C013327E5E0359512
:1023F0002795EA95E1F720278C0120FF05C010649E
:10240000C12C73E0D72E04C0CC24CA946CE0D62E25
:10241000C6010E94B210D4CFEE82FF8298860E874A
:102420001F87CC86DD86CDB7DEB7EDE00C94551F57
:10243000A0E0B0E0EEE1F2E10C943C1FEC010E856F
:102440001F85AC84BD84C984DA847B84EE80FF80E0
:10245000988461E1862E8A9431F1472D9601940E7D
:10246000E21EF31EEC14FD04D0F4C8019695879586
:10247000017011271195019511090027147B082778
:10248000192798013F70C901880F991F820F931F68
:1024900096958795969587955C012EEFB21AC501A2
:1024A0000E94B210D8CFEE82FF8298860E871F87D7
:1024B000AC86BD86CDB7DEB7EDE00C94551F9C0110
:1024C000C901969587959695879596958795969542
:1024D00087950895AC01660F771F660F771F660F0B
:1024E000771F660F771F2227469F312D5703C001A4
:1024F000749F300D811D921F5603920B300D811D6C
:10250000921F1124089590911522992359F0982F24
:10251000907F903939F48F7080935F230E94751AF1
:1025200010921522089580915220813099F160F027
:102530008230D9F58091C3098F7080935520109215
:10254000C3091092522031C08091C3098093542056
:10255000E0915320F0E0EE0FFF1FEE5BFF4D809106
:102560005420909155208083918388E08093650664
:10257000809366068091532091E0980F9770909316
:1025800053209695969596609093C30991E0909309
:1025900052200895809153208295880F880F807C67
:1025A0008093C30982E0809352208FEF0895CF93E8
:1025B000DF93EC018881853049F08D899E890E94E6
:1025C0006A122F89388D280F391F02C020E030E0B1
:1025D000C901DF91CF910895EF92FF920F931F935E
:1025E000CF93DF938B01E82EF12C69E1869FE00108
:1025F0001124C550DD4DB8018D899E890E946A1253
:102600002B893C89280F391F37FF02C020E030E0BA
:102610008981882319F0205C3F4F20782F3F7FE38A
:10262000370714F02FEF3FE3882309F1C701880F24
:10263000991FFC01ED50FD4D40815181B801641B93
:10264000750BAB0177FF03C0519541955109FC0112
:10265000E551FD4D4032510518F42081318107C00C
:1026600020833183FC01ED50FD4D008311838A816D
:102670008823E1F04C814423C9F0842F992787FDFA
:1026800090955B81E52FF0E08E179F077CF4513029
:1026900069F04F3F11F4329702C0FC013197EE0F01
:1026A000FF1FEC0FFD1F8581968102C080E090E046
:1026B000820F931FCDB7DEB7E6E00C945C1FCF937B
:1026C000DF93EFE1F2E210828EE1DF011496ED017B
:1026D00019928A95E9F78AE0DF019496ED01199243
:1026E0008A95E9F712A280E090E0DF01A80FB91FF8
:1026F0002FEF11962C93039681329105B1F7BE9678
:10270000D2E2E73DFD07F9F610921E2286E192E241
:102710000E94981D84E080931E2210921522109230
:10272000E7221092E8221092E9221092EA2248E071
:1027300050E06FEF7FEF8FED92E20E94111FDF916B
:10274000CF910895282F30E0220F331FF901E15275
:10275000FD4D408151814F3F8FEF5807B1F0CB01C4
:102760009E51840F951FF901E952FD4D2081318161
:10277000820F931F811520E4920714F08FEF9FE3DF
:1027800097FF04C080E090E00895CB010895209168
:102790008423309185232430310549F4909182239C
:1027A000891305C080916823909169230895E82FCB
:1027B000F0E0EE0FFF1FE659FC4D808191810895F6
:1027C0001F920F920FB60F9211248F93EF93FF93E6
:1027D00088E0E0E4F8E08187FF91EF918F910F901E
:1027E0000FBE0F901F9018951F920F920FB60F9269
:1027F00011240F931F932F933F934F935F936F93E6
:102800007F938F939F93AF93BF93CF93DF93EF9378
:10281000FF9320915720E22FF0E0EE0FFF1FE85AC0
:10282000FF4D808191812F5F2F772093572020E4E7
:10283000209345062093460690639093B0088093BA
:10284000B0080E9493128F3F09F487C1E82FF0E08F
:10285000EE0FFF1FEE5BFF4D2FEF3FE040815181F8
:10286000241B350BE82FFF27E7FDF095E050F04ED5
:1028700080814091842350918523425051094230F8
:10288000510558F490918223891307C0FA01EE0F85
:10289000FF1FE658FC4D20833183E82FF0E0EE0F58
:1028A000FF1FE659FC4D20833183992787FD9095C2
:1028B000A92FB92F8830910508F04FC1FC01E454CD
:1028C000FF4F0C94681FC091FB22D0E080E00E9473
:1028D000C713BC0180E00E94EC12BC0180E00E94A2
:1028E000A2138C0184E00E94C713BC018BEF92E21B
:1028F0000E94D712B801680F791F61158CE0780724
:102900004CF48091052290910622059799F085E07C
:1029100090E00CC0613084E3780764F08091052278
:1029200090910622049731F084E090E08093052294
:1029300090930622AE018FEF91E20E947A1A809165
:1029400001229091022280933609909337092091B9
:10295000052220930009969587959C013695279529
:102960002093072230930822809376099093770969
:102970008091052290910622059711F484E001C010
:1029800081E08093400950C1C0911423D0E081E0E0
:102990000E94C713BC0181E00E94EC12BC0181E0DF
:1029A0000E94A2138C0185E00E94C713BC0184E140
:1029B00093E20E94D712B801680F791F61158CE06D
:1029C00078074CF48091FD219091FE21059799F0B4
:1029D00085E090E00CC0613084E3780764F080917A
:1029E000FD219091FE21049731F084E090E08093E6
:1029F000FD219093FE21AE0187EF91E20E947A1AA9
:102A00008091F9219091FA2180937608909377082C
:102A10008091FD218093400807C1C0912D23D0E013
:102A200082E00E94C713BC0182E00E94EC12BC014C
:102A300082E00E94A2138C0186E00E94C713BC01B1
:102A40008DE293E20E94D712B801680F791F6115D9
:102A50008CE078074CF48091F5219091F621059750
:102A600099F085E090E00CC0613084E3780764F071
:102A70008091F5219091F621049731F084E090E067
:102A80008093F5219093F621AE018FEE91E20E94A2
:102A90007A1A8091F1219091F221809336089093D7
:102AA00037088091F52180930008BEC0C09146236D
:102AB000D0E083E00E94C713BC0183E00E94EC12C7
:102AC000BC0183E00E94A2138C0187E00E94C7131F
:102AD000BC0186E493E20E94D712800F911F80937D
:102AE000DE219093DF21C093DC21D093DD219CC0B7
:102AF00084E00E94C7130E945F128B3F20F486304F
:102B000018F486E001C08AEF809304228DC085E02E
:102B10000E94C7130E945F128B3F20F4863018F486
:102B200086E001C08AEF8093FC217EC086E00E948F
:102B3000C7130E945F128B3F20F4863018F486E0A2
:102B400001C08AEF8093F4216FC087E00E94C71311
:102B50000E945F128093EE2167C0209108062F70BB
:102B6000209520FD7FC08091E72281117BC080915C
:102B7000FD22811177C030E080E090E080937809F9
:102B800090937909332329F08091FF2190910022BD
:102B900002C080E090E0809338099093390921FDCC
:102BA00067C08091E822811163C080911623811152
:102BB0005FC080E090E0809378089093790822FDD0
:102BC0005CC08091E922811158C080912F2381112E
:102BD00054C080E090E0809338089093390823FD3A
:102BE00007C08091EA22811103C08091482301C06F
:102BF00081E08093E0218091A10887FF15C090912A
:102C0000A00880915921209158218150821B8F77F3
:102C100059F080915821E82FF0E0E65AFE4D90835C
:102C20008F5F8F77809358218091DA219091DB21FB
:102C300001968093DA219093DB21FF91EF91DF9150
:102C4000CF91BF91AF919F918F917F916F915F9144
:102C50004F913F912F911F910F910F900FBE0F90A9
:102C60001F901895809107229091082231E086CF1D
:102C70008091F7219091F8219ECF8091EF21909142
:102C8000F021A9CFCF93DF9378948091A200876041
:102C90008093A2008BE48093520088E080935000E0
:102CA0008091510083FFFCCF84EC8093550080918C
:102CB00050008061809350008091510084FFFCCFD0
:102CC00088ED84BF94E09093400084BF109241004F
:102CD000C1E0C0938206D8E1D09390068FE0809344
:102CE00002068093B000D093100681E693E20E9422
:102CF000161B8091280683FB882780F98C270E9469
:102D0000551A8FE38093A6081092A70880E180935C
:102D1000A4080E945F1360E26093410620E82093BC
:102D20005506209341062093570630E4309342061F
:102D30003093410620935606309345061092B6080C
:102D40001092B70880EC8093B508D093B408309304
:102D50004506309346068FE18093B0088FEF80934D
:102D6000B00880914109807F85608093410984E0AB
:102D700090E080930D2290930E2250E150936106D3
:102D8000209374064091410940614093410940916C
:102D90000109407F4560409301098093052290938B
:102DA0000622C0936106209370064091010940619C
:102DB0004093010940914108407F4560409341089C
:102DC0008093FD219093FE21509341062093540659
:102DD0004091410840614093410840910108407F83
:102DE0004560409301088093F5219093F621C093AC
:102DF000410620935006809101088061809301086C
:102E000080E09EE18093DE219093DF211092DC210F
:102E10001092DD21C093E02181E090E08093EA21CF
:102E20009093EB21209361062093770660936106CF
:102E300020937506309362065093610620937406C2
:102E40005093650688E08093610620937306809313
:102E5000650681E58093C00910925220109253209C
:102E6000C093000A89E992E08093360A9093370A6A
:102E70008091010A807F8093010A8091060A8C7FED
:102E800082608093060ADF91CF9108950F931F937C
:102E9000CF93DF93FC0172A140E0772309F470C067
:102EA000272F30E0E901CC0FDD1FDE01A20FB31F99
:102EB000AE0FBF1F11965C91C9010196561751F0D4
:102EC000DC01AA0FBB1FA80FB91FAE0FBF1F472FF2
:102ED0007C91E3CF4423A1F0DC01AA0FBB1FA80F14
:102EE000B91FAE0FBF1F6C9150E04F5F5F4FDA010B
:102EF000AA0FBB1FA40FB51FAE0FBF1F6C9309C055
:102F0000DC01AA0FBB1FA80FB91FAE0FBF1F4C914A
:102F100042A3008140E050E0142F4017E0F44F5FDF
:102F20005F4FDF01A40FB51F92966C916713F4CF2A
:102F3000612F70E0402F50E0415051096417750730
:102F400054F4DF01A60FB71F94964C919497939673
:102F50004C931F5FEDCFDC01AA0FBB1FA80FB91F59
:102F6000AE0FBF1F1C92DE01A20FB31FAE0FBF1F1B
:102F70008FEF11968C93119712961C92015000833B
:102F8000DF91CF911F910F9108950F931F93CF93CE
:102F9000DF9390915F232091602321112EC0891B24
:102FA0008F70082F10E03EE2839FE0011124C15E84
:102FB000DD4DCE010E94461728812223A9F0D801B9
:102FC000AA0FBB1FA152BD4D8AA190E0FC01EE0FDC
:102FD000FF1FE80FF91FEC0FFD1F818130E8839F71
:102FE000C00111248D939C93F801E951FD4D81E0BE
:102FF000211101C080E080830BC086E192E20E9433
:103000001A1E8F3F29F0E82FF0E0E951FD4D1082A4
:10301000DF91CF911F910F910895A0E0B0E0E3E11F
:10302000F8E10C94401FE62EC42E90915F23F82EF9
:10303000F91A2F2D2F70F22E411103C0822F0E94FA
:10304000C5178091602381116DC00F2D10E08EE2B5
:10305000F89EE0011124C15EDD4D6E2DCE010E946F
:10306000461788818A3091F420E030E0FE01E20FBB
:10307000F31F8681811101C0B4802D5F3F4F2E3137
:103080003105A1F76B2DCE010E94461780E090E03C
:1030900021E0FE01E80FF91F34813F3F29F02F5F47
:1030A00003962B30B1F701C0D22E2D2D30E0C9018F
:1030B0000196FC01EE0FFF1FE80FF91FEC0FFD1F3B
:1030C0008AA18083B901660F771FFB01E20FF31F0E
:1030D000EC0FFD1FE182C282DAA2A88180E090E0BD
:1030E000B82F8A17E0F5AC01FE01E80FF91F83A1A4
:1030F00090E0FC01EE0FFF1FE80FF91FEC0FFD1F22
:10310000E181CA010196EE1658F78A2FFE01B81721
:1031100030F4E80FF11D92A193A38150F7CFE40F93
:10312000F51F20C06E2D86E192E20E94D31DF82E7D
:10313000E82FF0E0EE0FFF1FE152FD4D20E8E29E88
:10314000C001112480839183EF2DF0E0E951FD4D02
:1031500081E08083CDB7DEB7E9E00C94591FFE0112
:10316000EA0FF11DD3A2AF5FA883D801AA0FBB1F3E
:10317000A152BD4DFB01E20FF31FEC0FFD1F81813A
:1031800020E8829FC00111248D939C93DDCF0F9383
:103190001F93CF93DF93EC01862F062F007F162F0E
:1031A0001F70003FA9F02091602390915F232111AF
:1031B0000AC0212F30E0291B31092F70332724301A
:1031C000310534F002C0191719F00E94831259C05A
:1031D0000E948312003941F44A816981812F44237E
:1031E00051F00E940D184DC0013940F4003809F02B
:1031F00048C06981812F0E94C51743C0003B81F4FC
:1032000089818937F1F580915F23181B1F70E12FA9
:10321000F0E0EE0FFF1FE952FD4D1082118231C028
:10322000003E79F580915F239A81298130E040E862
:10323000949F200D311D1124305275E0359527954E
:103240007A95E1F790916023992389F02093D72212
:103250003093D8222093D9223093DA222093DB2294
:103260003093DC222093DD223093DE220AC0181B2B
:103270001F70E12FF0E0EE0FFF1FE952FD4D20839C
:103280003183DF91CF911F910F9108950E944216D3
:103290008CED91E20E94CD1080915821909159219E
:1032A000891B8F7709F466C080915921E82FF0E0DF
:1032B000E65AFE4D60818F5F8F7780935921683F7A
:1032C00028F08FE092E20E94C718E6CF67FF2FC078
:1032D0001092132281E080931422862F807F803AFF
:1032E00061F028F4803849F08039C9F406C0803E86
:1032F00021F0803F31F0803B91F482E080931422F2
:1033000013C0862F8F709FEF980F923020F482E0C9
:103310008093142204C0843010F010921422673F6E
:1033200019F410920F220DC060930F220AC0E09191
:10333000132281E08E0F80931322F0E0E15FFD4DB8
:1033400061839091132280911422981708F4A4CFDE
:1033500060910F228FE092E20E94C7181092132210
:1033600080910F22813F08F497CF1092142210927F
:103370000F2292CF8091DA219091DB21C09790F1BA
:103380008091DA219091DB21C0978093DA2190938C
:10339000DB21609108066F706095A091832380E027
:1033A00090E071E0272F2623A1F0272F2A2389F40C
:1033B000FC01E550FD4D44814F3F59F04F5F448380
:1033C000552747FD5095238130E0421753070CF0F5
:1033D0001482770F49968436910521F760938323F1
:1033E0000E94791C8091880680FF04C080910609A4
:1033F000836003C0809106098C7F8093060948CFC3
:1034000010920F2210921322109214220895AF925C
:10341000BF92CF92DF92EF92FF920F93CF93DF9301
:103420007C016B01EA015901BC01C6010E94881EA2
:10343000C6018C0F9D1F0E944C1EF70197012C0F97
:103440003D1F90E0E217F30719F04191940FFACF76
:10345000891302C0002329F0AE01B501C7010E9403
:10346000081FDF91CF910F91FF90EF90DF90CF90E9
:10347000BF90AF900895CF93FC019C012A593F4F14
:10348000C0E0E217F30719F04191C40FFACF46E606
:1034900050E0BC0180E090E00E94B91E6C2F86E6EF
:1034A00090E00E94691ECF9108950F93882381F0C8
:1034B00001E021E33FE146E650E060E070E08BEFA1
:1034C00092E20E94071A8BEF92E20E943B1A0BC015
:1034D00000E021E33FE146E650E060E070E08BEF82
:1034E00092E20E94071A0F9108958BEF92E20E94D8
:1034F0003B1A08950F931F93CF93DC0116968D917D
:103500009C911797059719F480E09AEF02C080E02C
:103510009CE0681B790B77FF02C07A5FFCCFC0E0AC
:10352000611586E078071CF07650CF5FF9CFCB01AC
:10353000969587959695879596958795969587956F
:103540006F7020E1629FB0011124880F991FFC0168
:10355000E159F14E259134918F58914EFC0185919E
:1035600094918901081B190B9927069F812D169F9D
:10357000800D911D1124281B390B02C0369527950B
:10358000CA95E2F712962D933C9313974530510557
:1035900021F415964C91159704C0FA01E85DFF4D92
:1035A00040819927249F812D349F800D911D1124E6
:1035B0008D939C93CF911F910F910895AC01660F4D
:1035C000771F660F771F660F771F660F771F2227FB
:1035D000469F312D5703C001749F300D811D921FEE
:1035E0005603920B300D811D921F11240895CF9325
:1035F000DF93EC018D899E890E94DE1A2B893C891C
:10360000280F391F37FF02C020E030E0898188236E
:1036100019F0205C3F4F20782F3F8FE3380714F0DC
:103620002FEF3FE3C901DF91CF91089580EF8093A1
:1036300001068FE080932206E2E4F6E092E09083B8
:1036400098E090838093B00088E1E0E2F6E0808B20
:10365000E0E4F6E0818B838B109284231092852323
:1036600010928023109281231092822346E050E032
:103670006FEF70E082E693E20E94111F80E1EAE6BC
:10368000F3E2DF011D928A95E9F708958430B8F4DA
:1036900020918423309185232130310539F4109213
:1036A0008423109285230E94751A089521E030E04A
:1036B000209384233093852380938223089585303B
:1036C00011F40E945F130895A0E0B0E0EAE6FBE188
:1036D0000C943F1F843008F0F1C020918423309176
:1036E00085232230310509F46BC044F421153105DE
:1036F00009F44FC02130310551F0F6C023303105B7
:1037000009F465C02430310509F4B3C0EDC082303E
:10371000D9F08330D9F1E0918223813059F089E1E9
:10372000E89FF0011124E550FD4D818191E089274A
:103730008183DAC099E1E99FF0011124E550FD4D44
:10374000928198279283D0C084E090E08093842374
:10375000909385238091822390E0FC01EE0FFF1F60
:10376000E659FC4D208131812093682330936923F1
:1037700029E1289FF001299FF00D1124E550FD4D0E
:1037800081E083839FEF94838283AEC082E090E0E8
:1037900019C0282F30E099E1899FF0011124E550EC
:1037A000FD4D80818F5F863008F080E099E1929F27
:1037B000F001939FF00D1124E550FD4D808394C0DE
:1037C00083E090E080938423909385238DC0C09103
:1037D0008223D0E0FE01EE0FFF1FEE58FC4DC080AB
:1037E000D18000917C2310917D23E0907A23F0908A
:1037F0007B230E151F0541F198012E193F0944271F
:1038000037FD4095542F60E070E080EC90E00E941E
:10381000181F89E18C9F50018D9FB00C1124F50178
:10382000E550FD4D5F01258B368BB701600F711F91
:1038300075956795C9010E94DE1A20E03EE1281BBC
:10384000390BF501238B348B89E18C9F80018D9F8F
:10385000100D112405501D4DB601F801858996897A
:103860000E94DE1A919581959109F801878B908FBE
:103870001EC0E091822399E1E99FF0011124E550F7
:10388000FD4D43812FEF240F922F9370891771F014
:1038900090E030E02F5F3F4F23703327821793076C
:1038A00019F5483018F44F5F43831EC014820E94FC
:1038B000751A109284231092852316C0843051F417
:1038C00085E090E0809384239093852381E080932A
:1038D00015220AC0809160238F5F817080936023DE
:1038E0000E94751A0E945F13CDB7DEB7EAE00C9410
:1038F000581FA0E0B0E0EFE7FCE10C94421F2091DC
:103900008023309181232F5F3F4F2093802330937A
:10391000812380917E2390917F23019680937E2343
:1039200090937F2380918423909185238230910509
:1039300009F44AC02CF4009759F0019761F006C0D1
:103940008430910571F15CF10597C9F020E03DC02C
:10395000209183233AC0E091822389E1E89FF0011E
:103960001124E550FD4D818192819111826027FFE4
:1039700003C0282F246029C0282F286026C0220FCA
:10398000232F221F330B3195217021958091152211
:1039900081111BC0109284231092852316C02FE042
:1039A00014C0E091822329E1E29FF0011124E55047
:1039B000FD4D838190E001978370992721E001C03C
:1039C000220F8A95EAF701C023E0309104062F7098
:1039D000E22FF0E0E25DFF4D8081E0E18E9FC001CB
:1039E00011243F70382B30930406E0912806EF70C5
:1039F000F0E0E25DFF4D9081E2E6F3E28081880F26
:103A0000292F2170822B8193969523E2E636F207C7
:103A1000A9F7909148069695917080916623880F3A
:103A2000892B809366239091480693FB992790F900
:103A300080916723880F892B80936723C2E6D3E2A6
:103A4000F12C8E0188818E3F29F410927E231092F2
:103A50007F230CC081110AC020917E2330917F23E7
:103A60002835324019F48F2D0E94461B2196F8010B
:103A70008081813051F420917E2330917F2328353D
:103A8000324018F48F2D0E94641BF39426E0F2124A
:103A9000D8CF80918423909185230497F1F5E0910C
:103AA00082238E2F90E029E1E29FF0011124E5505E
:103AB000FD4D43819C01220F331F413049F4F90130
:103AC000E659FC4D4081518140936823509369230E
:103AD000F901E659FC4D60817181E0906823F09016
:103AE000692329E1289FE001299FD00D1124C550A9
:103AF000DD4DDB8081E08D1580F4CE010E94F71A48
:103B00008C01B701CE010E94F71ACD0DD11DCD0D4C
:103B1000D11D081B190B09831A83CDB7DEB7E7E067
:103B20000C945B1FFC011082118212821382089593
:103B3000CF93DF93EC010E94921D83E08C8382E09F
:103B40008D8381E08E831F82DF91CF910895FC01E8
:103B50007085A82FFC018E2F8A1B871748F441918E
:103B60004F7750E0262F30E042175307A1F701C0EE
:103B70008FEF089520E030E043E0FC01E20FF31FF7
:103B80005781561739F0FC01E40FF11D47FDFA95F6
:103B900054834150215031092C3F5FEF350769F7BD
:103BA000FC0164830895FF920F931F93CF93DF93DB
:103BB000EC01F62E08850023B9F10E94A71D182FED
:103BC0008F3F31F520E030E0FE01E20FF31F8481EA
:103BD000801730F4FE01E80FF11D908197FF182F38
:103BE0002F5F3F4F2430310579F7812F1F3F81F43C
:103BF00020E030E0FE01E20FF31F1481101708F0FF
:103C0000182F2F5F3F4F2430310511F0812FF2CF55
:103C1000FE01E10FF11D8F2D80688083612FCE01A1
:103C20000E94BA1D812F01C08FEFCDB7DEB7E5E04E
:103C30000C945D1F1F93CF93DF93EC010E94A71D8F
:103C4000182F8F3F51F0FE01E80FF11D80818F7713
:103C50008083612FCE010E94BA1D812FDF91CF9109
:103C60001F910895EBECF1E021E030E088ED90E069
:103C700084BF208308958091CF0187FDFCCF0895F4
:103C80000E943B1E8091CF0181FF05C086E3809397
:103C9000CA010E94321E0895A2E0B0E0E2E5FEE112
:103CA0000C94451F89839A830E943B1E00EC11E00F
:103CB0008981F80180839A819F719183128286E0C5
:103CC00082870E94321EF80184812296E4E00C94DF
:103CD0005E1FA3E0B0E0EFE6FEE10C94471F6983AE
:103CE0008A839B830E94401EE0ECF1E023E322875D
:103CF0008A8180839B819F71918312826981648311
:103D000085E382870E94321E2396E2E00C94601FB6
:103D1000A2E0B0E0EEE8FEE10C943F1F5C017A0106
:103D20001092C20169837A830E943B1E6981062F2B
:103D30007A81172F6501CE0CDF1CAC14BD04A1F0F5
:103D4000A092C0018B2D8F718093C10186E080937A
:103D5000CA010E94321E8091C401F80181938F0133
:103D6000FFEFAF1ABF0AE9CFC7012296EAE00C9431
:103D7000581FA3E0B0E0EFEBFEE10C943F1F6A0197
:103D8000282F2F718C01021B110929836A837B83E1
:103D90000E94401E0E943B1E83E38093CA01109242
:103DA000C1011092C2016A81E62E7B81F72E560175
:103DB0002981A114B10421F12093C001F70181915F
:103DC0007F018093C401F1E0AF1AB108A114B104DE
:103DD00019F02F5F203269F70093C001812F8F7196
:103DE0008093C10185E38093CA010E94321E005E68
:103DF0001F4F0E943B1E83E38093CA0120E0D9CF6E
:103E0000C6012396EAE00C94581FF8940C94901F76
:103E1000FB01DC0102C005900D9241505040D8F7E3
:103E20000895DC0101C06D9341505040E0F70895C2
:103E3000052E97FB1EF400940E942F1F57FD07D0FC
:103E40000E946E1F07FC03D04EF40C942F1F509558
:103E50004095309521953F4F4F4F5F4F0895909576
:103E60008095709561957F4F8F4F9F4F08952F924A
:103E70003F924F925F926F927F928F929F92AF92FA
:103E8000BF92CF92DF92EF92FF920F931F93CF9347
:103E9000DF93CDB7DEB7CA1BDB0BCDBFDEBF099406
:103EA0002A88398848885F846E847D848C849B84CA
:103EB000AA84B984C884DF80EE80FD800C811B81D8
:103EC000AA81B981CE0FD11DCDBFDEBFED0108950E
:103ED000EE0FFF1F0590F491E02D0994A1E21A2E38
:103EE000AA1BBB1BFD010DC0AA1FBB1FEE1FFF1F9E
:103EF000A217B307E407F50720F0A21BB30BE40BEE
:103F0000F50B661F771F881F991F1A9469F7609534
:103F10007095809590959B01AC01BD01CF010895EE
:043F2000F894FFCF43
:103F24000001040502030607AC19AB17AA15A9136F
:103F3400A811A70FA60DA60DA50BA409A307A205FA
:103F4400A103A001A60DA60D805540200D0A00086E
:0E3F5400040C020A060E0109050D030B070FEF
:00000001FF
