:10800000BBC00000D4C00000D2C00000D0C000003F
:10801000CEC00000CCC00000CAC00000C8C0000034
:10802000C6C00000C4C00000C2C00000C0C0000044
:10803000BEC0000067C10000BAC00000B8C00000A8
:10804000B6C00000B4C00000B2C00000B0C0000064
:10805000AEC00000ACC00000AAC00000A8C0000074
:10806000A6C00000A4C00000A2C00000A0C0000084
:108070009EC000009CC000009AC0000098C0000094
:1080800096C0000094C0000092C0000090C00000A4
:108090008EC000008CC000008AC0000088C00000B4
:1080A00086C0000084C0000082C0000080C00000C4
:1080B0007EC000007CC000004EC1000078C00000FF
:1080C00076C0000074C0000072C0000070C00000E4
:1080D0006EC000006CC000006AC0000068C00000F4
:1080E00066C0000064C0000062C0000060C0000004
:1080F0005EC000005CC000005AC0000058C0000014
:1081000056C0000054C0000052C0000050C0000023
:108110004EC000004CC000004AC0000048C0000033
:1081200046C0000044C0000042C0000040C0000043
:108130003EC000003CC000003AC0000038C0000053
:1081400036C0000034C0000032C0000030C0000063
:108150002EC000002CC000002AC0000028C0000073
:1081600026C0000024C0000022C0000020C0000083
:108170001EC000001CC0000011241FBECFEFDFE2B4
:10818000DEBFCDBF10E2A0E0B0E2E4E7F6E802C057
:1081900005900D92A630B107D9F711E2A6E0B0E242
:1081A00001C01D92AF30B107E1F7E1D12EC228CF57
:1081B0003BB78BBFFB0186913BBF08953BB78BBF9D
:1081C000FB01879196913BBF089542E08CC041E04E
:1081D0008AC08093C00188278093C1018093C20127
:1081E00047E071D0CB0108958093C40148E06BC093
:1081F0008091D00108953BB748E17AC03BB74AE18E
:1082000077C03BB7882799278BBF40E271C03BB747
:108210008BBFCB0142E26CC03BB70B0143E268C0AD
:10822000EE27FF2719BEDC0143E24093CA0150E864
:108230002DE90D901D9020933400E89532965A95C3
:10824000C1F7112408953BB76BBFFA0119BEDC01D9
:1082500040E04093CA0150E0879197918D939D93A0
:108260005A95D1F73BBF08953BB78BBFCB0144E292
:108270003FC03BB78BBFCB0145E23AC03BB746E2BC
:1082800037C03BB78BBFCB014AE232C03BB78BBF95
:10829000CB014CE22DC03BB78BBFCB014DE228C0D8
:1082A00048E311C049E30FC028ED2093340021E0DA
:1082B0002093CC0108952091CF0127FDFCCF2227E8
:1082C0002093CA0108954093CA0128ED31E020931C
:1082D00034003093CB016091C4017091C50180914D
:1082E000C60199270895FC014093CA01849108951D
:1082F000FC014093CA012DE920933400E895112434
:108300003BBF08951F920F920FB60F9211242F9327
:108310003F934F935F936F937F938F939F93AF930D
:10832000BF93EF93FF93E0910820F09109203097DD
:1083300009F00995FF91EF91BF91AF919F918F91B6
:108340007F916F915F914F913F912F910F900FBE51
:108350000F901F9018951F920F920FB60F92112435
:108360002F933F934F935F936F937F938F939F933D
:10837000AF93BF93EF93FF93E0910620F091072016
:10838000309709F00995FF91EF91BF91AF919F91BF
:108390008F917F916F915F914F913F912F910F90AE
:1083A0000FBE0F901F9018958CE090E239DF60911E
:1083B0000D2170910E2180E090E05BDF7CDF109258
:1083C000CA010895E4E0F6E0208130E1839FC00116
:1083D00011242F70282B20830895CF93C8E08FE0BD
:1083E000F1DF2FEF81EE94E0215080409040E1F7E3
:1083F00000C0000088E0E6DF2FEF81EE94E021501E
:1084000080409040E1F700C00000C15041F7CF919B
:10841000089580E0D7DF85E02FEF33EC99E021501D
:1084200030409040E1F700C0000090EF90930706C5
:10843000815091F70895A3E0B0E0E0E2F2E4F1C0EA
:108440008FE38093A6081092A70880E18093A40888
:1084500010920D2110920E21D12C40E000E010E08E
:108460002D2D30E02D5F3F4F2370332784E090E0C7
:1084700002C0959587952A95E2F788604B83A2DF25
:108480004B818091A10887FFFCCF2091A008213F5C
:1084900010F0273F29F7413089F018F0423001F100
:1084A000DFCFF801E050F04E80812813D7CF0F5F67
:1084B0001F4F06301105A1F641E0D0CF27FDCDCFEB
:1084C000C8010196FE01E00FF11F21838230910562
:1084D00029F4C12C42E0E12CF12CC0CF8C01C0CF9B
:1084E00027FD19C0F701E45FFF4D00FF0EC02F709C
:1084F0008081282B20838FEFE816F10409F008F41F
:10850000C20E9FEFE91AF90A03C02295207F20834B
:108510000F5F1F4FA5CF273F09F0A2CF89818F376B
:1085200039F48A8181111EC001151105D9F41CC0CE
:1085300091E0E916F906B1F48E37A1F48A81811130
:1085400011C010910C211C110DC02EDF80910D2146
:1085500090910E21939580930D2190930E21D394A9
:10856000C12E7BCF56DF79CF2396E8E073C0789495
:108570008091A20087608093A2008BE480935200D8
:1085800088E0809350008091510083FFFCCF84EC01
:1085900080935500809150008061809350008091BD
:1085A000510084FFFCCF88ED84BF94E0909340009D
:1085B00084BF1092410080EF809301068FE080938A
:1085C00022068093B00088E1809330068FE3809389
:1085D000A6081092A70880E18093A4082FEF80E7F7
:1085E00092E0215080409040E1F700C0000080916F
:1085F000280680FD03C0F1DE1EDFEFDE55DE1CBE67
:10860000E0910A20F0910B200995F89431C02F9247
:108610003F924F925F926F927F928F929F92AF9212
:10862000BF92CF92DF92EF92FF920F931F93CF935F
:10863000DF93CDB7DEB7CA1BDB0BCDBFDEBF09941E
:108640002A88398848885F846E847D848C849B84E2
:10865000AA84B984C884DF80EE80FD800C811B81F0
:10866000AA81B981CE0FD11DCDBFDEBFED01089526
:04867000F894FFCFAC
:06867400F0002102000AE3
:040000030000800079
:00000001FF
